{
  "contractName": "Nifty",
  "abi": [
    {
      "inputs": [
        {
          "internalType": "string",
          "name": "symbol_sent",
          "type": "string"
        },
        {
          "internalType": "uint256",
          "name": "quantity_sent",
          "type": "uint256"
        },
        {
          "internalType": "uint256",
          "name": "price_sent",
          "type": "uint256"
        }
      ],
      "payable": false,
      "stateMutability": "nonpayable",
      "type": "constructor"
    },
    {
      "constant": false,
      "inputs": [
        {
          "internalType": "uint256",
          "name": "sent_price",
          "type": "uint256"
        },
        {
          "internalType": "uint256",
          "name": "sent_qty",
          "type": "uint256"
        }
      ],
      "name": "buy",
      "outputs": [],
      "payable": true,
      "stateMutability": "payable",
      "type": "function"
    },
    {
      "constant": false,
      "inputs": [
        {
          "internalType": "uint256",
          "name": "sell_price",
          "type": "uint256"
        },
        {
          "internalType": "uint256",
          "name": "sell_qty",
          "type": "uint256"
        }
      ],
      "name": "sell",
      "outputs": [],
      "payable": true,
      "stateMutability": "payable",
      "type": "function"
    },
    {
      "constant": true,
      "inputs": [
        {
          "internalType": "uint256",
          "name": "orderid",
          "type": "uint256"
        }
      ],
      "name": "getDetails",
      "outputs": [
        {
          "internalType": "string",
          "name": "",
          "type": "string"
        }
      ],
      "payable": false,
      "stateMutability": "view",
      "type": "function"
    },
    {
      "constant": true,
      "inputs": [],
      "name": "getMarketPrice",
      "outputs": [
        {
          "internalType": "string",
          "name": "",
          "type": "string"
        }
      ],
      "payable": false,
      "stateMutability": "view",
      "type": "function"
    },
    {
      "constant": true,
      "inputs": [],
      "name": "getMarketDepth",
      "outputs": [
        {
          "internalType": "string",
          "name": "",
          "type": "string"
        }
      ],
      "payable": false,
      "stateMutability": "view",
      "type": "function"
    },
    {
      "constant": false,
      "inputs": [
        {
          "internalType": "uint256",
          "name": "orderid",
          "type": "uint256"
        }
      ],
      "name": "cancel_buyorder",
      "outputs": [],
      "payable": true,
      "stateMutability": "payable",
      "type": "function"
    },
    {
      "constant": false,
      "inputs": [
        {
          "internalType": "uint256",
          "name": "orderid",
          "type": "uint256"
        }
      ],
      "name": "cancel_sellorder",
      "outputs": [],
      "payable": false,
      "stateMutability": "nonpayable",
      "type": "function"
    }
  ],
  "bytecode": "0x60806040523480156200001157600080fd5b50604051620031cb380380620031cb833981810160405260608110156200003757600080fd5b81019080805160405193929190846401000000008211156200005857600080fd5b838201915060208201858111156200006f57600080fd5b82518660018202830111640100000000821117156200008d57600080fd5b8083526020830192505050908051906020019080838360005b83811015620000c3578082015181840152602081019050620000a6565b50505050905090810190601f168015620000f15780820380516001836020036101000a031916815260200191505b50604052602001805190602001909291908051906020019092919050505082600290805190602001906200012792919062000265565b5081600360003073ffffffffffffffffffffffffffffffffffffffff1673ffffffffffffffffffffffffffffffffffffffff1681526020019081526020016000208190555060046040518060a001604052806000548152602001600181526020013073ffffffffffffffffffffffffffffffffffffffff1681526020018381526020018481525090806001815401808255809150509060018203906000526020600020906005020160009091929091909150600082015181600001556020820151816001015560408201518160020160006101000a81548173ffffffffffffffffffffffffffffffffffffffff021916908373ffffffffffffffffffffffffffffffffffffffff1602179055506060820151816003015560808201518160040155505050600080815480929190600101919050555050505062000314565b828054600181600116156101000203166002900490600052602060002090601f016020900481019282601f10620002a857805160ff1916838001178555620002d9565b82800160010185558215620002d9579182015b82811115620002d8578251825591602001919060010190620002bb565b5b509050620002e89190620002ec565b5090565b6200031191905b808211156200030d576000816000905550600101620002f3565b5090565b90565b612ea780620003246000396000f3fe6080604052600436106100705760003560e01c806391d7f5b71161004e57806391d7f5b7146101c3578063b93a89f7146101fe578063d6febde8146102b2578063d79875eb146102ea57610070565b8063333930a114610075578063373c1c91146100a3578063660e16c314610133575b600080fd5b6100a16004803603602081101561008b57600080fd5b8101908080359060200190929190505050610322565b005b3480156100af57600080fd5b506100b86105fc565b6040518080602001828103825283818151815260200191508051906020019080838360005b838110156100f85780820151818401526020810190506100dd565b50505050905090810190601f1680156101255780820380516001836020036101000a031916815260200191505b509250505060405180910390f35b34801561013f57600080fd5b50610148610b68565b6040518080602001828103825283818151815260200191508051906020019080838360005b8381101561018857808201518184015260208101905061016d565b50505050905090810190601f1680156101b55780820380516001836020036101000a031916815260200191505b509250505060405180910390f35b3480156101cf57600080fd5b506101fc600480360360208110156101e657600080fd5b8101908080359060200190929190505050610ceb565b005b34801561020a57600080fd5b506102376004803603602081101561022157600080fd5b8101908080359060200190929190505050610f6d565b6040518080602001828103825283818151815260200191508051906020019080838360005b8381101561027757808201518184015260208101905061025c565b50505050905090810190601f1680156102a45780820380516001836020036101000a031916815260200191505b509250505060405180910390f35b6102e8600480360360408110156102c857600080fd5b8101908080359060200190929190803590602001909291905050506119ad565b005b6103206004803603604081101561030057600080fd5b810190808035906020019092919080359060200190929190505050611f1c565b005b600080905060008090505b60058054905081101561059657826005828154811061034857fe5b9060005260206000209060050201600001541415610589573373ffffffffffffffffffffffffffffffffffffffff166005828154811061038457fe5b906000526020600020906005020160020160009054906101000a900473ffffffffffffffffffffffffffffffffffffffff1673ffffffffffffffffffffffffffffffffffffffff1614610422576040517f08c379a0000000000000000000000000000000000000000000000000000000008152600401808060200182810382526027815260200180612e246027913960400191505060405180910390fd5b60016005828154811061043157fe5b90600052602060002090600502016001015414610499576040517f08c379a000000000000000000000000000000000000000000000000000000000815260040180806020018281038252602b815260200180612dd4602b913960400191505060405180910390fd5b600581815481106104a657fe5b906000526020600020906005020160020160009054906101000a900473ffffffffffffffffffffffffffffffffffffffff1673ffffffffffffffffffffffffffffffffffffffff166108fc600583815481106104fe57fe5b9060005260206000209060050201600401546005848154811061051d57fe5b906000526020600020906005020160030154029081150290604051600060405180830381858888f1935050505015801561055b573d6000803e3d6000fd5b5060006005828154811061056b57fe5b90600052602060002090600502016001018190555060019150610596565b808060010191505061032d565b50600181146105f0576040517f08c379a000000000000000000000000000000000000000000000000000000000815260040180806020018281038252603e815260200180612d96603e913960400191505060405180910390fd5b6105f86125be565b5050565b6060806040518060200160405280600081525090506000809050816040516020018082805190602001908083835b6020831061064d578051825260208201915060208101905060208303925061062a565b6001836020036101000a038019825116818451168082178552505050505050905001807f0a2a2a2a2a2a2a2a2a2a2a53454c4c204f52444552532a2a2a2a2a2a2a2a2a0a81525060200191505060405160208183030381529060405291506005600480549050116106c55760048054905090506106ca565b600590505b60008090505b818110156108bc576001600482815481106106e757fe5b90600052602060002090600502016001015414156108af57826107276004838154811061071057fe5b9060005260206000209060050201600301546128c7565b61074e6004848154811061073757fe5b9060005260206000209060050201600401546128c7565b6040516020018084805190602001908083835b602083106107845780518252602082019150602081019050602083039250610761565b6001836020036101000a038019825116818451168082178552505050505050905001807f0a78292050726963653a20000000000000000000000000000000000000000000815250600b0183805190602001908083835b602083106107fd57805182526020820191506020810190506020830392506107da565b6001836020036101000a038019825116818451168082178552505050505050905001807f2d3e205368617265733a20000000000000000000000000000000000000000000815250600b0182805190602001908083835b602083106108765780518252602082019150602081019050602083039250610853565b6001836020036101000a038019825116818451168082178552505050505050905001935050505060405160208183030381529060405292505b80806001019150506106d0565b50816040516020018082805190602001908083835b602083106108f457805182526020820191506020810190506020830392506108d1565b6001836020036101000a038019825116818451168082178552505050505050905001807f0a0a2a2a2a2a2a2a2a2a2a2a425559204f52444552532a2a2a2a2a2a2a2a2a0a8152506020019150506040516020818303038152906040529150600580805490501161096b576005805490509050610970565b600590505b60008090505b81811015610b625760016005828154811061098d57fe5b9060005260206000209060050201600101541415610b5557826109cd600583815481106109b657fe5b9060005260206000209060050201600301546128c7565b6109f4600584815481106109dd57fe5b9060005260206000209060050201600401546128c7565b6040516020018084805190602001908083835b60208310610a2a5780518252602082019150602081019050602083039250610a07565b6001836020036101000a038019825116818451168082178552505050505050905001807f0a78292050726963653a20000000000000000000000000000000000000000000815250600b0183805190602001908083835b60208310610aa35780518252602082019150602081019050602083039250610a80565b6001836020036101000a038019825116818451168082178552505050505050905001807f2d3e205368617265733a20000000000000000000000000000000000000000000815250600b0182805190602001908083835b60208310610b1c5780518252602082019150602081019050602083039250610af9565b6001836020036101000a038019825116818451168082178552505050505050905001935050505060405160208183030381529060405292505b8080600101915050610976565b50505090565b60608060405180602001604052806000815250905080610b896001546128c7565b6040516020018083805190602001908083835b60208310610bbf5780518252602082019150602081019050602083039250610b9c565b6001836020036101000a038019825116818451168082178552505050505050905001807f0a2a2a2a2a2a2a2a2a2a2a2a2a2a2a2a2a2a0000000000000000000000000000815250601201807f0a00000000000000000000000000000000000000000000000000000000000000815250600101807f4d61726b65742050726963653a20000000000000000000000000000000000000815250600e0182805190602001908083835b60208310610c885780518252602082019150602081019050602083039250610c65565b6001836020036101000a038019825116818451168082178552505050505050905001807f0a000000000000000000000000000000000000000000000000000000000000008152506001019250505060405160208183030381529060405290505090565b600080905060008090505b600480549050811015610f07578260048281548110610d1157fe5b9060005260206000209060050201600001541415610efa573373ffffffffffffffffffffffffffffffffffffffff1660048281548110610d4d57fe5b906000526020600020906005020160020160009054906101000a900473ffffffffffffffffffffffffffffffffffffffff1673ffffffffffffffffffffffffffffffffffffffff1614610deb576040517f08c379a0000000000000000000000000000000000000000000000000000000008152600401808060200182810382526028815260200180612e4b6028913960400191505060405180910390fd5b600160048281548110610dfa57fe5b90600052602060002090600502016001015414610e62576040517f08c379a000000000000000000000000000000000000000000000000000000000815260040180806020018281038252602b815260200180612dd4602b913960400191505060405180910390fd5b600060048281548110610e7157fe5b90600052602060002090600502016001018190555060048181548110610e9357fe5b906000526020600020906005020160040154600360003373ffffffffffffffffffffffffffffffffffffffff1673ffffffffffffffffffffffffffffffffffffffff1681526020019081526020016000206000828254019250508190555060019150610f07565b8080600101915050610cf6565b5060018114610f61576040517f08c379a000000000000000000000000000000000000000000000000000000000815260040180806020018281038252603e815260200180612d96603e913960400191505060405180910390fd5b610f696129f4565b5050565b606080604051806020016040528060008152509050600080905060008090505b600580549050811015611483576000821415611476578460058281548110610fb157fe5b9060005260206000209060050201600001541415611475573373ffffffffffffffffffffffffffffffffffffffff1660058281548110610fed57fe5b906000526020600020906005020160020160009054906101000a900473ffffffffffffffffffffffffffffffffffffffff1673ffffffffffffffffffffffffffffffffffffffff161461108b576040517f08c379a0000000000000000000000000000000000000000000000000000000008152600401808060200182810382526027815260200180612e246027913960400191505060405180910390fd5b826110b36005838154811061109c57fe5b9060005260206000209060050201600001546128c7565b6110da600584815481106110c357fe5b9060005260206000209060050201600301546128c7565b611101600585815481106110ea57fe5b9060005260206000209060050201600401546128c7565b6111286005868154811061111157fe5b9060005260206000209060050201600101546128c7565b6040516020018086805190602001908083835b6020831061115e578051825260208201915060208101905060208303925061113b565b6001836020036101000a038019825116818451168082178552505050505050905001807f0a2a2a2a2a2a2a2a2a2a2a2a2a2a2a2a2a2a0000000000000000000000000000815250601201807f0a00000000000000000000000000000000000000000000000000000000000000815250600101807f4f726465722049443a2000000000000000000000000000000000000000000000815250600a0185805190602001908083835b602083106112275780518252602082019150602081019050602083039250611204565b6001836020036101000a038019825116818451168082178552505050505050905001807f0a00000000000000000000000000000000000000000000000000000000000000815250600101807f50726963653a200000000000000000000000000000000000000000000000000081525060070184805190602001908083835b602083106112c857805182526020820191506020810190506020830392506112a5565b6001836020036101000a038019825116818451168082178552505050505050905001807f0a00000000000000000000000000000000000000000000000000000000000000815250600101807f5175616e74697479206c6566743a200000000000000000000000000000000000815250600f0183805190602001908083835b602083106113695780518252602082019150602081019050602083039250611346565b6001836020036101000a038019825116818451168082178552505050505050905001807f0a00000000000000000000000000000000000000000000000000000000000000815250600101807f53746174653a200000000000000000000000000000000000000000000000000081525060070182805190602001908083835b6020831061140a57805182526020820191506020810190506020830392506113e7565b6001836020036101000a038019825116818451168082178552505050505050905001807f0a0000000000000000000000000000000000000000000000000000000000000081525060010195505050505050604051602081830303815290604052925060019150611483565b5b8080600101915050610f8d565b5060008090505b6004805490508110156119805760008214156119735784600482815481106114ae57fe5b9060005260206000209060050201600001541415611972573373ffffffffffffffffffffffffffffffffffffffff16600482815481106114ea57fe5b906000526020600020906005020160020160009054906101000a900473ffffffffffffffffffffffffffffffffffffffff1673ffffffffffffffffffffffffffffffffffffffff1614611588576040517f08c379a0000000000000000000000000000000000000000000000000000000008152600401808060200182810382526028815260200180612e4b6028913960400191505060405180910390fd5b826115b06004838154811061159957fe5b9060005260206000209060050201600001546128c7565b6115d7600484815481106115c057fe5b9060005260206000209060050201600301546128c7565b6115fe600485815481106115e757fe5b9060005260206000209060050201600401546128c7565b6116256004868154811061160e57fe5b9060005260206000209060050201600101546128c7565b6040516020018086805190602001908083835b6020831061165b5780518252602082019150602081019050602083039250611638565b6001836020036101000a038019825116818451168082178552505050505050905001807f0a2a2a2a2a2a2a2a2a2a2a2a2a2a2a2a2a2a0000000000000000000000000000815250601201807f0a00000000000000000000000000000000000000000000000000000000000000815250600101807f4f726465722049443a2000000000000000000000000000000000000000000000815250600a0185805190602001908083835b602083106117245780518252602082019150602081019050602083039250611701565b6001836020036101000a038019825116818451168082178552505050505050905001807f0a00000000000000000000000000000000000000000000000000000000000000815250600101807f50726963653a200000000000000000000000000000000000000000000000000081525060070184805190602001908083835b602083106117c557805182526020820191506020810190506020830392506117a2565b6001836020036101000a038019825116818451168082178552505050505050905001807f0a00000000000000000000000000000000000000000000000000000000000000815250600101807f5175616e74697479206c6566743a200000000000000000000000000000000000815250600f0183805190602001908083835b602083106118665780518252602082019150602081019050602083039250611843565b6001836020036101000a038019825116818451168082178552505050505050905001807f0a00000000000000000000000000000000000000000000000000000000000000815250600101807f53746174653a200000000000000000000000000000000000000000000000000081525060070182805190602001908083835b6020831061190757805182526020820191506020810190506020830392506118e4565b6001836020036101000a038019825116818451168082178552505050505050905001807f0a0000000000000000000000000000000000000000000000000000000000000081525060010195505050505050604051602081830303815290604052925060019150611980565b5b808060010191505061148a565b5060008114156119a6576040518060600160405280603e8152602001612d96603e913991505b5050919050565b8082023414611a24576040517f08c379a000000000000000000000000000000000000000000000000000000000815260040180806020018281038252601b8152602001807f57524f4e472c20616d6f756e74206f66206d6f6e65792070616964000000000081525060200191505060405180910390fd5b60008090505b600480549050811015611e0e578260048281548110611a4557fe5b9060005260206000209060050201600301541115611a6257611e0e565b8160048281548110611a7057fe5b90600052602060002090600502016004015411611c555782600181905550600060048281548110611a9d57fe5b906000526020600020906005020160040154905080600360003073ffffffffffffffffffffffffffffffffffffffff1673ffffffffffffffffffffffffffffffffffffffff1681526020019081526020016000206000828254039250508190555080600360003373ffffffffffffffffffffffffffffffffffffffff1673ffffffffffffffffffffffffffffffffffffffff1681526020019081526020016000206000828254019250508190555060048281548110611b5857fe5b906000526020600020906005020160020160009054906101000a900473ffffffffffffffffffffffffffffffffffffffff1673ffffffffffffffffffffffffffffffffffffffff166108fc8286029081150290604051600060405180830381858888f19350505050158015611bd1573d6000803e3d6000fd5b508060048381548110611be057fe5b906000526020600020906005020160040160008282540392505081905550600060048381548110611c0d57fe5b9060005260206000209060050201600401541415611c4a57600260048381548110611c3457fe5b9060005260206000209060050201600101819055505b808303925050611e01565b82600181905550600082905080600360003073ffffffffffffffffffffffffffffffffffffffff1673ffffffffffffffffffffffffffffffffffffffff1681526020019081526020016000206000828254039250508190555080600360003373ffffffffffffffffffffffffffffffffffffffff1673ffffffffffffffffffffffffffffffffffffffff1681526020019081526020016000206000828254019250508190555060048281548110611d0857fe5b906000526020600020906005020160020160009054906101000a900473ffffffffffffffffffffffffffffffffffffffff1673ffffffffffffffffffffffffffffffffffffffff166108fc8286029081150290604051600060405180830381858888f19350505050158015611d81573d6000803e3d6000fd5b508060048381548110611d9057fe5b906000526020600020906005020160040160008282540392505081905550600060048381548110611dbd57fe5b9060005260206000209060050201600401541415611dfa57600260048381548110611de457fe5b9060005260206000209060050201600101819055505b8083039250505b8080600101915050611a2a565b5060008114611f085760056040518060a001604052806000548152602001600181526020013373ffffffffffffffffffffffffffffffffffffffff1681526020018481526020018381525090806001815401808255809150509060018203906000526020600020906005020160009091929091909150600082015181600001556020820151816001015560408201518160020160006101000a81548173ffffffffffffffffffffffffffffffffffffffff021916908373ffffffffffffffffffffffffffffffffffffffff160217905550606082015181600301556080820151816004015550505060008081548092919060010191905055505b611f106125be565b611f186129f4565b5050565b80600360003373ffffffffffffffffffffffffffffffffffffffff1673ffffffffffffffffffffffffffffffffffffffff168152602001908152602001600020541015611fb4576040517f08c379a0000000000000000000000000000000000000000000000000000000008152600401808060200182810382526025815260200180612dff6025913960400191505060405180910390fd5b60008090505b600580549050811015612416578260058281548110611fd557fe5b9060005260206000209060050201600301541015611ff257612416565b816005828154811061200057fe5b90600052602060002090600502016004015411612221576005818154811061202457fe5b90600052602060002090600502016003015460018190555060006005828154811061204b57fe5b906000526020600020906005020160040154905080600360006005858154811061207157fe5b906000526020600020906005020160020160009054906101000a900473ffffffffffffffffffffffffffffffffffffffff1673ffffffffffffffffffffffffffffffffffffffff1673ffffffffffffffffffffffffffffffffffffffff1681526020019081526020016000206000828254019250508190555080600360003373ffffffffffffffffffffffffffffffffffffffff1673ffffffffffffffffffffffffffffffffffffffff168152602001908152602001600020600082825403925050819055503373ffffffffffffffffffffffffffffffffffffffff166108fc826005858154811061215f57fe5b906000526020600020906005020160030154029081150290604051600060405180830381858888f1935050505015801561219d573d6000803e3d6000fd5b5080600583815481106121ac57fe5b9060005260206000209060050201600401600082825403925050819055506000600583815481106121d957fe5b90600052602060002090600502016004015414156122165760026005838154811061220057fe5b9060005260206000209060050201600101819055505b808303925050612409565b6005818154811061222e57fe5b906000526020600020906005020160030154600181905550600082905080600360006005858154811061225d57fe5b906000526020600020906005020160020160009054906101000a900473ffffffffffffffffffffffffffffffffffffffff1673ffffffffffffffffffffffffffffffffffffffff1673ffffffffffffffffffffffffffffffffffffffff1681526020019081526020016000206000828254019250508190555080600360003373ffffffffffffffffffffffffffffffffffffffff1673ffffffffffffffffffffffffffffffffffffffff168152602001908152602001600020600082825403925050819055503373ffffffffffffffffffffffffffffffffffffffff166108fc826005858154811061234b57fe5b906000526020600020906005020160030154029081150290604051600060405180830381858888f19350505050158015612389573d6000803e3d6000fd5b50806005838154811061239857fe5b9060005260206000209060050201600401600082825403925050819055506000600583815481106123c557fe5b9060005260206000209060050201600401541415612402576002600583815481106123ec57fe5b9060005260206000209060050201600101819055505b8083039250505b8080600101915050611fba565b50600081146125aa5760046040518060a001604052806000548152602001600181526020013373ffffffffffffffffffffffffffffffffffffffff1681526020018481526020018381525090806001815401808255809150509060018203906000526020600020906005020160009091929091909150600082015181600001556020820151816001015560408201518160020160006101000a81548173ffffffffffffffffffffffffffffffffffffffff021916908373ffffffffffffffffffffffffffffffffffffffff160217905550606082015181600301556080820151816004015550505080600360003373ffffffffffffffffffffffffffffffffffffffff1673ffffffffffffffffffffffffffffffffffffffff1681526020019081526020016000206000828254039250508190555080600360003073ffffffffffffffffffffffffffffffffffffffff1673ffffffffffffffffffffffffffffffffffffffff1681526020019081526020016000206000828254019250508190555060008081548092919060010191905055505b6125b26125be565b6125ba6129f4565b5050565b60006006816125cd9190612cfd565b5060008090505b6005805490508110156127a9576000809050600080905060008090505b6005805490508110156126915760016005828154811061260d57fe5b906000526020600020906005020160010154141561268457600083141561263a5760019250809150612683565b6005818154811061264757fe5b9060005260206000209060050201600301546005838154811061266657fe5b9060005260206000209060050201600301541015612682578091505b5b5b80806001019150506125f1565b50600182141561279a576006600582815481106126aa57fe5b90600052602060002090600502019080600181540180825580915050906001820390600052602060002090600502016000909192909190915060008201548160000155600182015481600101556002820160009054906101000a900473ffffffffffffffffffffffffffffffffffffffff168160020160006101000a81548173ffffffffffffffffffffffffffffffffffffffff021916908373ffffffffffffffffffffffffffffffffffffffff160217905550600382015481600301556004820154816004015550505060006005828154811061278457fe5b9060005260206000209060050201600101819055505b505080806001019150506125d4565b5060006005816127b99190612cfd565b5060008090505b6006805490508110156128b4576005600682815481106127dc57fe5b90600052602060002090600502019080600181540180825580915050906001820390600052602060002090600502016000909192909190915060008201548160000155600182015481600101556002820160009054906101000a900473ffffffffffffffffffffffffffffffffffffffff168160020160006101000a81548173ffffffffffffffffffffffffffffffffffffffff021916908373ffffffffffffffffffffffffffffffffffffffff160217905550600382015481600301556004820154816004015550505080806001019150506127c0565b5060006006816128c49190612cfd565b50565b6060600082141561290f576040518060400160405280600181526020017f300000000000000000000000000000000000000000000000000000000000000081525090506129ef565b600082905060005b60008214612939578080600101915050600a828161293157fe5b049150612917565b6060816040519080825280601f01601f19166020018201604052801561296e5781602001600182028038833980820191505090505b50905060008290508593505b600084146129e757600a848161298c57fe5b0660300160f81b828260019003925082815181106129a657fe5b60200101907effffffffffffffffffffffffffffffffffffffffffffffffffffffffffffff1916908160001a905350600a84816129df57fe5b04935061297a565b819450505050505b919050565b6000600681612a039190612cfd565b5060008090505b600480549050811015612bdf576000809050600080905060008090505b600480549050811015612ac757600160048281548110612a4357fe5b9060005260206000209060050201600101541415612aba576000831415612a705760019250809150612ab9565b60048181548110612a7d57fe5b90600052602060002090600502016003015460048381548110612a9c57fe5b9060005260206000209060050201600301541115612ab8578091505b5b5b8080600101915050612a27565b506001821415612bd057600660048281548110612ae057fe5b90600052602060002090600502019080600181540180825580915050906001820390600052602060002090600502016000909192909190915060008201548160000155600182015481600101556002820160009054906101000a900473ffffffffffffffffffffffffffffffffffffffff168160020160006101000a81548173ffffffffffffffffffffffffffffffffffffffff021916908373ffffffffffffffffffffffffffffffffffffffff1602179055506003820154816003015560048201548160040155505050600060048281548110612bba57fe5b9060005260206000209060050201600101819055505b50508080600101915050612a0a565b506000600481612bef9190612cfd565b5060008090505b600680549050811015612cea57600460068281548110612c1257fe5b90600052602060002090600502019080600181540180825580915050906001820390600052602060002090600502016000909192909190915060008201548160000155600182015481600101556002820160009054906101000a900473ffffffffffffffffffffffffffffffffffffffff168160020160006101000a81548173ffffffffffffffffffffffffffffffffffffffff021916908373ffffffffffffffffffffffffffffffffffffffff16021790555060038201548160030155600482015481600401555050508080600101915050612bf6565b506000600681612cfa9190612cfd565b50565b815481835581811115612d2a57600502816005028360005260206000209182019101612d299190612d2f565b5b505050565b612d9291905b80821115612d8e5760008082016000905560018201600090556002820160006101000a81549073ffffffffffffffffffffffffffffffffffffffff02191690556003820160009055600482016000905550600501612d35565b5090565b9056fe54686973204f7264657220494420796f7520686176652070726f766964656420646f6573206e6f742065786973742c20706c65617365207265636865636b546865204f7264657220697320616c72656164792063616e63656c6c6564206f722066756c66696c6c6564596f7520646f206e6f74206861766520656e6f7567682073686172657320746f2073656c6c596f7520617265206e6f7420746865206f776e6572206f66207468697320427579206f72646572596f7520617265206e6f7420746865206f776e6572206f6620746869732053656c6c206f72646572a265627a7a7231582089219db737948a1a8c404e5425c2fdda54bcd26c135108688a5b40ed232f750164736f6c63430005100032",
  "source": "// SPDX-License-Identifier: MIT\npragma solidity 0.5.16;\n\ncontract Nifty {\n    struct NewOrder{\n        uint order_id; // represents the order ID\n        uint State; //represents id order is open for execution 1, cancelled 0 or completed 2\n        address payable ExecutorAddress;//represents the address of the individual who posted the order\n        uint Price; //price individual is willing to give or take for the order\n        uint qty_left; //quantity of stocks left to be sold or bought\n    }\n\n    uint number_of_orders; \n    uint marketprice;\n    // number of orders placed \n\n    string private Symbol; \n    // string, denoting the name of the asset exchanged by the smart contract\n    \n    mapping (address=> uint) private OwnedStocks; \n    // A mapping to store the owner address and the quantity of the assets owned\n    \n    \n    NewOrder[] private Sell_orders; \n    // NewOrder array, A sorted array of type NewOrder Structure of all the \n    // selling orders which are yet to be executed\n    \n    NewOrder[] private Buy_orders; \n    // NewOrder array, A sorted array of type NewOrder Structure of all the \n    // buying orders which are yet to be executed.\n\n\n    NewOrder[] private temp_orders; \n    // NewOrder array, A temporary array of type NewOrder Structure \n\n\n    // constructor which provides options for IPO\n    constructor(string memory symbol_sent, uint quantity_sent,uint price_sent) public\n    {\n        Symbol = symbol_sent;\n        OwnedStocks[address(this)] = quantity_sent;\n        Sell_orders.push(NewOrder(number_of_orders,1,address(uint160(address(this))),price_sent,quantity_sent));\n        number_of_orders++;\n    }\n\n\n    // function to sort Buy_orders\n    function sort_Buy_orders() internal \n    {\n        // NewOrder[] storage temp_orders;\n        temp_orders.length = 0;\n        for(uint i=0; i<Buy_orders.length; i++)\n        {\n            uint found = 0;\n            uint found_id = 0;\n            for(uint j=0; j<Buy_orders.length; j++)\n            {\n                if(Buy_orders[j].State == 1)\n                {\n                    if(found==0)\n                    {\n                        found = 1;\n                        found_id = j;\n                    }\n                    else\n                    {\n                        if(Buy_orders[found_id].Price < Buy_orders[j].Price)\n                        {\n                            found_id = j;\n                        }\n                    }\n                }\n            }\n            if(found == 1)\n            {\n                temp_orders.push(Buy_orders[found_id]);\n                Buy_orders[found_id].State = 0;\n            }\n        }\n\n        Buy_orders.length = 0;\n\n        for(uint i = 0 ; i<temp_orders.length ; i++)\n        {\n            Buy_orders.push(temp_orders[i]);\n        }\n        temp_orders.length = 0;\n    }\n\n    // function to sort Sell_orders\n    function sort_Sell_orders() internal \n    {\n        // NewOrder[] storage temp_orders;\n        temp_orders.length = 0;\n        for(uint i=0; i<Sell_orders.length; i++)\n        {\n            uint found = 0;\n            uint found_id = 0;\n            for(uint j=0; j<Sell_orders.length; j++)\n            {\n                if(Sell_orders[j].State == 1)\n                {\n                    if(found==0)\n                    {\n                        found = 1;\n                        found_id = j;\n                    }\n                    else\n                    {\n                        if(Sell_orders[found_id].Price > Sell_orders[j].Price)\n                        {\n                            found_id = j;\n                        }\n                    }\n                }\n            }\n            if(found == 1)\n            {\n                temp_orders.push(Sell_orders[found_id]);\n                Sell_orders[found_id].State = 0;\n            }\n        }\n\n        Sell_orders.length = 0;\n\n        for(uint i = 0 ; i<temp_orders.length ; i++)\n        {\n            Sell_orders.push(temp_orders[i]);\n        }\n        temp_orders.length = 0;\n    }   \n\n\n    // A function to post a buy order for underlying security, function will take all the \n    // necesarry inputs to post a buy order as parameter and will return the status of order.\n    function buy(uint sent_price, uint sent_qty) payable public\n    {\n        require(msg.value == sent_price*sent_qty,\"WRONG, amount of money paid\"); // check if the value of money sent matches with quantity*price\n        for(uint i=0;i<Sell_orders.length;i++)\n        {\n            if(Sell_orders[i].Price > sent_price)\n            {\n                break;\n            }\n            else\n            {\n                if(Sell_orders[i].qty_left <= sent_qty)\n                {\n                    marketprice = sent_price;\n                    uint temp_qty = Sell_orders[i].qty_left;\n                    OwnedStocks[address(this)] -= temp_qty;\n                    OwnedStocks[msg.sender] += temp_qty;\n                    Sell_orders[i].ExecutorAddress.transfer(sent_price*temp_qty);\n                    Sell_orders[i].qty_left -= temp_qty;\n                    if(Sell_orders[i].qty_left == 0)\n                    {\n                        Sell_orders[i].State = 2;\n                    }\n                    sent_qty -= temp_qty;\n                }\n                else\n                {\n                    marketprice = sent_price;\n                    uint temp_qty = sent_qty;\n                    OwnedStocks[address(this)] -= temp_qty;\n                    OwnedStocks[msg.sender] += temp_qty;\n                    Sell_orders[i].ExecutorAddress.transfer(sent_price*temp_qty);\n                    Sell_orders[i].qty_left -= temp_qty;\n                    if(Sell_orders[i].qty_left == 0)\n                    {\n                        Sell_orders[i].State = 2;\n                    }\n                    sent_qty -= temp_qty;\n                }\n            }\n        }\n\n        if(sent_qty !=0)\n        {\n            Buy_orders.push(NewOrder(number_of_orders,1,msg.sender,sent_price,sent_qty));\n            number_of_orders++;\n        }\n        sort_Buy_orders();\n        sort_Sell_orders();\n    }\n\n\n    function sell(uint sell_price, uint sell_qty) payable public\n    {\n        require(OwnedStocks[msg.sender] >= sell_qty, \"You do not have enough shares to sell\");\n        \n        for(uint i=0;i<Buy_orders.length;i++)\n        {\n            if(Buy_orders[i].Price < sell_price)\n            {\n                break;\n            }\n            else\n            {\n                if(Buy_orders[i].qty_left <= sell_qty)\n                {\n                    marketprice = Buy_orders[i].Price;\n                    uint temp_qty = Buy_orders[i].qty_left;\n                    OwnedStocks[Buy_orders[i].ExecutorAddress] += temp_qty;\n                    OwnedStocks[msg.sender] -= temp_qty;\n                    address(uint160(msg.sender)).transfer(Buy_orders[i].Price*temp_qty);\n                    Buy_orders[i].qty_left -= temp_qty;\n                    if(Buy_orders[i].qty_left == 0)\n                    {\n                        Buy_orders[i].State = 2;\n                    }\n                    sell_qty -= temp_qty;\n                }\n                else\n                {\n                    marketprice = Buy_orders[i].Price;\n                    uint temp_qty = sell_qty;\n                    OwnedStocks[Buy_orders[i].ExecutorAddress] += temp_qty;\n                    OwnedStocks[msg.sender] -= temp_qty;\n                    address(uint160(msg.sender)).transfer(Buy_orders[i].Price*temp_qty);\n                    Buy_orders[i].qty_left -= temp_qty;\n                    if(Buy_orders[i].qty_left == 0)\n                    {\n                        Buy_orders[i].State = 2;\n                    }\n                    sell_qty -= temp_qty;\n                }\n            }\n        }\n\n        if(sell_qty !=0)\n        {\n            Sell_orders.push(NewOrder(number_of_orders,1,msg.sender,sell_price,sell_qty));\n            OwnedStocks[msg.sender] -= sell_qty;\n            OwnedStocks[address(this)] += sell_qty;\n            number_of_orders++;\n        }\n        sort_Buy_orders();\n        sort_Sell_orders();\n    }\n\n    function getDetails(uint orderid) public view returns(string memory)\n    {\n\n        string memory ret = \"\";\n\n        uint found = 0;\n\n        for(uint i=0;i<Buy_orders.length;i++)\n        {\n            if(found == 0)\n            {\n            if(Buy_orders[i].order_id == orderid)\n            {\n                require(Buy_orders[i].ExecutorAddress == msg.sender, \"You are not the owner of this Buy order\");\n                ret = string(abi.encodePacked(ret,\"\\n*****************\",\"\\n\",\"Order ID: \",uint2str(Buy_orders[i].order_id),\"\\n\",\n                \"Price: \",uint2str(Buy_orders[i].Price),\"\\n\",\n                \"Quantity left: \", uint2str(Buy_orders[i].qty_left),\"\\n\",\n                \"State: \",uint2str(Buy_orders[i].State),\"\\n\"));\n                \n                found = 1;\n                break;\n            }\n            }\n        }\n\n        for(uint i=0;i<Sell_orders.length;i++)\n        {\n            if(found == 0)\n            {\n            if(Sell_orders[i].order_id == orderid)\n            {\n                require(Sell_orders[i].ExecutorAddress == msg.sender, \"You are not the owner of this Sell order\");\n                \n                ret = string(abi.encodePacked(ret,\"\\n*****************\",\"\\n\",\"Order ID: \",uint2str(Sell_orders[i].order_id),\"\\n\",\n                \"Price: \",uint2str(Sell_orders[i].Price),\"\\n\",\n                \"Quantity left: \", uint2str(Sell_orders[i].qty_left),\"\\n\",\n                \"State: \",uint2str(Sell_orders[i].State),\"\\n\"));\n                \n                found = 1;\n                break;\n\n            }\n            }\n        }\n\n        if(found == 0)\n        {\n            ret = string(\"This Order ID you have provided does not exist, please recheck\");\n        }\n\n    }\n\n    function getMarketPrice() public view returns(string memory)\n    {\n        string memory ret = \"\";\n        ret = string(abi.encodePacked(ret,\"\\n*****************\",\"\\n\",\"Market Price: \",uint2str(marketprice),\"\\n\"));\n    }\n\n    function getMarketDepth() public view returns(string memory)\n    {\n        string memory ret = \"\";\n        uint length = 0;\n        ret = string(abi.encodePacked(ret, \"\\n**********SELL ORDERS*********\\n\"));\n        if(Sell_orders.length <=5)\n        {\n            length = Sell_orders.length;         \n        }\n        else\n        {\n            length = 5;\n        }\n        for(uint i=0;i<length;i++)\n        {\n            if(Sell_orders[i].State == 1)\n            {\n                ret = string(abi.encodePacked(ret, \"\\nx) Price: \", uint2str(Sell_orders[i].Price), \"-> Shares: \", uint2str(Sell_orders[i].qty_left)));\n            }\n        }\n        ret = string(abi.encodePacked(ret, \"\\n\\n**********BUY ORDERS*********\\n\"));\n        if(Buy_orders.length <=5)\n        {\n            length = Buy_orders.length;         \n        }\n        else\n        {\n            length = 5;\n        }\n        for(uint i=0;i<length;i++)\n        {\n            if(Buy_orders[i].State == 1)\n            {\n                ret = string(abi.encodePacked(ret, \"\\nx) Price: \", uint2str(Buy_orders[i].Price), \"-> Shares: \", uint2str(Buy_orders[i].qty_left)));\n            }\n        }\n    }\n\n    function cancel_buyorder(uint orderid) public payable\n    {\n        uint found = 0;\n        for(uint i=0;i<Buy_orders.length;i++)\n        {\n            if(Buy_orders[i].order_id == orderid)\n            {\n                require(Buy_orders[i].ExecutorAddress == msg.sender, \"You are not the owner of this Buy order\");\n                require(Buy_orders[i].State == 1, \"The Order is already cancelled or fulfilled\");\n                Buy_orders[i].ExecutorAddress.transfer(Buy_orders[i].Price*Buy_orders[i].qty_left);\n                Buy_orders[i].State = 0;\n                found = 1;\n                break;\n\n            }\n        }\n        require(found == 1,\"This Order ID you have provided does not exist, please recheck\");\n        sort_Buy_orders();\n    }\n\n    function cancel_sellorder(uint orderid) public \n    {\n        uint found = 0;\n        for(uint i=0;i<Sell_orders.length;i++)\n        {\n            if(Sell_orders[i].order_id == orderid)\n            {\n                require(Sell_orders[i].ExecutorAddress == msg.sender, \"You are not the owner of this Sell order\");\n                require(Sell_orders[i].State == 1, \"The Order is already cancelled or fulfilled\");\n                Sell_orders[i].State = 0;\n                OwnedStocks[msg.sender] += Sell_orders[i].qty_left;\n                found = 1;\n                break;\n\n            }\n        }\n        require(found == 1,\"This Order ID you have provided does not exist, please recheck\");\n        sort_Sell_orders();\n    }\n\n    function uint2str(uint256 _i) internal pure returns (string memory str)\n    {\n        if (_i == 0)\n        {\n            return \"0\";\n        }\n        uint256 j = _i;\n        uint256 length;\n        while (j != 0)\n        {\n            length++;\n            j /= 10;\n        }\n        bytes memory bstr = new bytes(length);\n        uint256 k = length;\n        j = _i;\n        while (j != 0)\n        {\n            bstr[--k] = bytes1(uint8(48 + j % 10));\n            j /= 10;\n        }\n        str = string(bstr);\n    }\n}",
  "sourcePath": "/home/kushagra/Documents/A2k21/Blockchain/Project/DSE-Decentralised-Stock-Exchange/contracts/Nifty.sol",
  "compiler": {
    "name": "solc",
    "version": "0.5.16+commit.9c3226ce.Emscripten.clang"
  },
  "schemaVersion": "3.4.3",
  "updatedAt": "2021-12-04T17:13:24.554Z",
  "devdoc": {
    "methods": {}
  },
  "userdoc": {
    "methods": {}
  }
}