{
  "contractName": "Nifty",
  "abi": [
    {
      "inputs": [
        {
          "internalType": "string",
          "name": "symbol_sent",
          "type": "string"
        },
        {
          "internalType": "uint256",
          "name": "quantity_sent",
          "type": "uint256"
        },
        {
          "internalType": "uint256",
          "name": "price_sent",
          "type": "uint256"
        }
      ],
      "payable": false,
      "stateMutability": "nonpayable",
      "type": "constructor"
    },
    {
      "constant": false,
      "inputs": [
        {
          "internalType": "uint256",
          "name": "sent_price",
          "type": "uint256"
        },
        {
          "internalType": "uint256",
          "name": "sent_qty",
          "type": "uint256"
        }
      ],
      "name": "buy",
      "outputs": [],
      "payable": true,
      "stateMutability": "payable",
      "type": "function"
    },
    {
      "constant": false,
      "inputs": [
        {
          "internalType": "uint256",
          "name": "sell_price",
          "type": "uint256"
        },
        {
          "internalType": "uint256",
          "name": "sell_qty",
          "type": "uint256"
        }
      ],
      "name": "sell",
      "outputs": [],
      "payable": true,
      "stateMutability": "payable",
      "type": "function"
    },
    {
      "constant": true,
      "inputs": [
        {
          "internalType": "uint256",
          "name": "orderid",
          "type": "uint256"
        }
      ],
      "name": "getDetails",
      "outputs": [
        {
          "internalType": "string",
          "name": "",
          "type": "string"
        }
      ],
      "payable": false,
      "stateMutability": "view",
      "type": "function"
    },
    {
      "constant": true,
      "inputs": [],
      "name": "getMarketPrice",
      "outputs": [
        {
          "internalType": "string",
          "name": "",
          "type": "string"
        }
      ],
      "payable": false,
      "stateMutability": "view",
      "type": "function"
    },
    {
      "constant": true,
      "inputs": [],
      "name": "getMarketDepth",
      "outputs": [
        {
          "internalType": "string",
          "name": "",
          "type": "string"
        }
      ],
      "payable": false,
      "stateMutability": "view",
      "type": "function"
    },
    {
      "constant": true,
      "inputs": [],
      "name": "getActiveOrders",
      "outputs": [
        {
          "internalType": "string",
          "name": "",
          "type": "string"
        }
      ],
      "payable": false,
      "stateMutability": "view",
      "type": "function"
    },
    {
      "constant": false,
      "inputs": [
        {
          "internalType": "uint256",
          "name": "orderid",
          "type": "uint256"
        }
      ],
      "name": "cancel_buyorder",
      "outputs": [],
      "payable": true,
      "stateMutability": "payable",
      "type": "function"
    },
    {
      "constant": false,
      "inputs": [
        {
          "internalType": "uint256",
          "name": "orderid",
          "type": "uint256"
        }
      ],
      "name": "cancel_sellorder",
      "outputs": [],
      "payable": false,
      "stateMutability": "nonpayable",
      "type": "function"
    },
    {
      "constant": true,
      "inputs": [],
      "name": "getShares",
      "outputs": [
        {
          "internalType": "string",
          "name": "",
          "type": "string"
        }
      ],
      "payable": false,
      "stateMutability": "view",
      "type": "function"
    }
  ],
  "bytecode": "0x60806040523480156200001157600080fd5b506040516200416b3803806200416b833981810160405260608110156200003757600080fd5b81019080805160405193929190846401000000008211156200005857600080fd5b838201915060208201858111156200006f57600080fd5b82518660018202830111640100000000821117156200008d57600080fd5b8083526020830192505050908051906020019080838360005b83811015620000c3578082015181840152602081019050620000a6565b50505050905090810190601f168015620000f15780820380516001836020036101000a031916815260200191505b5060405260200180519060200190929190805190602001909291905050508260029080519060200190620001279291906200026c565b5081600360003073ffffffffffffffffffffffffffffffffffffffff1673ffffffffffffffffffffffffffffffffffffffff1681526020019081526020016000208190555060046040518060a001604052806000548152602001600181526020013073ffffffffffffffffffffffffffffffffffffffff1681526020018381526020018481525090806001815401808255809150509060018203906000526020600020906005020160009091929091909150600082015181600001556020820151816001015560408201518160020160006101000a81548173ffffffffffffffffffffffffffffffffffffffff021916908373ffffffffffffffffffffffffffffffffffffffff16021790555060608201518160030155608082015181600401555050506000808154809291906001019190505550806001819055505050506200031b565b828054600181600116156101000203166002900490600052602060002090601f016020900481019282601f10620002af57805160ff1916838001178555620002e0565b82800160010185558215620002e0579182015b82811115620002df578251825591602001919060010190620002c2565b5b509050620002ef9190620002f3565b5090565b6200031891905b8082111562000314576000816000905550600101620002fa565b5090565b90565b613e40806200032b6000396000f3fe6080604052600436106100855760003560e01c806391d7f5b71161005957806391d7f5b714610268578063b93a89f7146102a3578063d6febde814610357578063d73fe0aa1461038f578063d79875eb1461041f57610085565b806286e68b1461008a578063333930a11461011a578063373c1c9114610148578063660e16c3146101d8575b600080fd5b34801561009657600080fd5b5061009f610457565b6040518080602001828103825283818151815260200191508051906020019080838360005b838110156100df5780820151818401526020810190506100c4565b50505050905090810190601f16801561010c5780820380516001836020036101000a031916815260200191505b509250505060405180910390f35b6101466004803603602081101561013057600080fd5b8101908080359060200190929190505050610ee1565b005b34801561015457600080fd5b5061015d6111bb565b6040518080602001828103825283818151815260200191508051906020019080838360005b8381101561019d578082015181840152602081019050610182565b50505050905090810190601f1680156101ca5780820380516001836020036101000a031916815260200191505b509250505060405180910390f35b3480156101e457600080fd5b506101ed611727565b6040518080602001828103825283818151815260200191508051906020019080838360005b8381101561022d578082015181840152602081019050610212565b50505050905090810190601f16801561025a5780820380516001836020036101000a031916815260200191505b509250505060405180910390f35b34801561027457600080fd5b506102a16004803603602081101561028b57600080fd5b81019080803590602001909291905050506118ad565b005b3480156102af57600080fd5b506102dc600480360360208110156102c657600080fd5b8101908080359060200190929190505050611b9a565b6040518080602001828103825283818151815260200191508051906020019080838360005b8381101561031c578082015181840152602081019050610301565b50505050905090810190601f1680156103495780820380516001836020036101000a031916815260200191505b509250505060405180910390f35b61038d6004803603604081101561036d57600080fd5b8101908080359060200190929190803590602001909291905050506125dd565b005b34801561039b57600080fd5b506103a4612c5d565b6040518080602001828103825283818151815260200191508051906020019080838360005b838110156103e45780820151818401526020810190506103c9565b50505050905090810190601f1680156104115780820380516001836020036101000a031916815260200191505b509250505060405180910390f35b6104556004803603604081101561043557600080fd5b810190808035906020019092919080359060200190929190505050612e20565b005b6060806040518060200160405280600081525090506000809050816040516020018082805190602001908083835b602083106104a85780518252602082019150602081019050602083039250610485565b6001836020036101000a038019825116818451168082178552505050505050905001807f0a2a2a2a2a2a2a2a2a2a2a53454c4c204f52444552532a2a2a2a2a2a2a2a2a0a815250602001915050604051602081830303815290604052915060008090505b6004805490508110156109a45760016004828154811061052857fe5b9060005260206000209060050201600101541480156105b057503373ffffffffffffffffffffffffffffffffffffffff166004828154811061056657fe5b906000526020600020906005020160020160009054906101000a900473ffffffffffffffffffffffffffffffffffffffff1673ffffffffffffffffffffffffffffffffffffffff16145b1561099757826105dd600483815481106105c657fe5b9060005260206000209060050201600001546134fc565b610604600484815481106105ed57fe5b9060005260206000209060050201600301546134fc565b61062b6004858154811061061457fe5b9060005260206000209060050201600401546134fc565b6106526004868154811061063b57fe5b9060005260206000209060050201600101546134fc565b6040516020018086805190602001908083835b602083106106885780518252602082019150602081019050602083039250610665565b6001836020036101000a038019825116818451168082178552505050505050905001807f0a2a2a2a2a2a2a2a2a2a2a2a2a2a2a2a2a2a0000000000000000000000000000815250601201807f0a00000000000000000000000000000000000000000000000000000000000000815250600101807f4f726465722049443a2000000000000000000000000000000000000000000000815250600a0185805190602001908083835b60208310610751578051825260208201915060208101905060208303925061072e565b6001836020036101000a038019825116818451168082178552505050505050905001807f0a00000000000000000000000000000000000000000000000000000000000000815250600101807f50726963653a200000000000000000000000000000000000000000000000000081525060070184805190602001908083835b602083106107f257805182526020820191506020810190506020830392506107cf565b6001836020036101000a038019825116818451168082178552505050505050905001807f0a00000000000000000000000000000000000000000000000000000000000000815250600101807f5175616e74697479206c6566743a200000000000000000000000000000000000815250600f0183805190602001908083835b602083106108935780518252602082019150602081019050602083039250610870565b6001836020036101000a038019825116818451168082178552505050505050905001807f0a00000000000000000000000000000000000000000000000000000000000000815250600101807f53746174653a200000000000000000000000000000000000000000000000000081525060070182805190602001908083835b602083106109345780518252602082019150602081019050602083039250610911565b6001836020036101000a038019825116818451168082178552505050505050905001807f0a000000000000000000000000000000000000000000000000000000000000008152506001019550505050505060405160208183030381529060405292505b808060010191505061050c565b50816040516020018082805190602001908083835b602083106109dc57805182526020820191506020810190506020830392506109b9565b6001836020036101000a038019825116818451168082178552505050505050905001807f0a0a2a2a2a2a2a2a2a2a2a2a425559204f52444552532a2a2a2a2a2a2a2a2a0a815250602001915050604051602081830303815290604052915060008090505b600580549050811015610ed857600160058281548110610a5c57fe5b906000526020600020906005020160010154148015610ae457503373ffffffffffffffffffffffffffffffffffffffff1660058281548110610a9a57fe5b906000526020600020906005020160020160009054906101000a900473ffffffffffffffffffffffffffffffffffffffff1673ffffffffffffffffffffffffffffffffffffffff16145b15610ecb5782610b1160058381548110610afa57fe5b9060005260206000209060050201600001546134fc565b610b3860058481548110610b2157fe5b9060005260206000209060050201600301546134fc565b610b5f60058581548110610b4857fe5b9060005260206000209060050201600401546134fc565b610b8660058681548110610b6f57fe5b9060005260206000209060050201600101546134fc565b6040516020018086805190602001908083835b60208310610bbc5780518252602082019150602081019050602083039250610b99565b6001836020036101000a038019825116818451168082178552505050505050905001807f0a2a2a2a2a2a2a2a2a2a2a2a2a2a2a2a2a2a0000000000000000000000000000815250601201807f0a00000000000000000000000000000000000000000000000000000000000000815250600101807f4f726465722049443a2000000000000000000000000000000000000000000000815250600a0185805190602001908083835b60208310610c855780518252602082019150602081019050602083039250610c62565b6001836020036101000a038019825116818451168082178552505050505050905001807f0a00000000000000000000000000000000000000000000000000000000000000815250600101807f50726963653a200000000000000000000000000000000000000000000000000081525060070184805190602001908083835b60208310610d265780518252602082019150602081019050602083039250610d03565b6001836020036101000a038019825116818451168082178552505050505050905001807f0a00000000000000000000000000000000000000000000000000000000000000815250600101807f5175616e74697479206c6566743a200000000000000000000000000000000000815250600f0183805190602001908083835b60208310610dc75780518252602082019150602081019050602083039250610da4565b6001836020036101000a038019825116818451168082178552505050505050905001807f0a00000000000000000000000000000000000000000000000000000000000000815250600101807f53746174653a200000000000000000000000000000000000000000000000000081525060070182805190602001908083835b60208310610e685780518252602082019150602081019050602083039250610e45565b6001836020036101000a038019825116818451168082178552505050505050905001807f0a000000000000000000000000000000000000000000000000000000000000008152506001019550505050505060405160208183030381529060405292505b8080600101915050610a40565b50819250505090565b600080905060008090505b600580549050811015611155578260058281548110610f0757fe5b9060005260206000209060050201600001541415611148573373ffffffffffffffffffffffffffffffffffffffff1660058281548110610f4357fe5b906000526020600020906005020160020160009054906101000a900473ffffffffffffffffffffffffffffffffffffffff1673ffffffffffffffffffffffffffffffffffffffff1614610fe1576040517f08c379a0000000000000000000000000000000000000000000000000000000008152600401808060200182810382526027815260200180613d626027913960400191505060405180910390fd5b600160058281548110610ff057fe5b90600052602060002090600502016001015414611058576040517f08c379a000000000000000000000000000000000000000000000000000000000815260040180806020018281038252602b815260200180613d12602b913960400191505060405180910390fd5b6005818154811061106557fe5b906000526020600020906005020160020160009054906101000a900473ffffffffffffffffffffffffffffffffffffffff1673ffffffffffffffffffffffffffffffffffffffff166108fc600583815481106110bd57fe5b906000526020600020906005020160040154600584815481106110dc57fe5b906000526020600020906005020160030154029081150290604051600060405180830381858888f1935050505015801561111a573d6000803e3d6000fd5b5060006005828154811061112a57fe5b90600052602060002090600502016001018190555060019150611155565b8080600101915050610eec565b50600181146111af576040517f08c379a000000000000000000000000000000000000000000000000000000000815260040180806020018281038252603e815260200180613cd4603e913960400191505060405180910390fd5b6111b7613629565b5050565b6060806040518060200160405280600081525090506000809050816040516020018082805190602001908083835b6020831061120c57805182526020820191506020810190506020830392506111e9565b6001836020036101000a038019825116818451168082178552505050505050905001807f0a2a2a2a2a2a2a2a2a2a2a53454c4c204f52444552532a2a2a2a2a2a2a2a2a0a8152506020019150506040516020818303038152906040529150600080905060008090505b600480549050821080156112895750600581105b1561147a5760016004838154811061129d57fe5b906000526020600020906005020160010154141561146d57836112dd600484815481106112c657fe5b9060005260206000209060050201600301546134fc565b611304600485815481106112ed57fe5b9060005260206000209060050201600401546134fc565b6040516020018084805190602001908083835b6020831061133a5780518252602082019150602081019050602083039250611317565b6001836020036101000a038019825116818451168082178552505050505050905001807f0a78292050726963653a20000000000000000000000000000000000000000000815250600b0183805190602001908083835b602083106113b35780518252602082019150602081019050602083039250611390565b6001836020036101000a038019825116818451168082178552505050505050905001807f2d3e205368617265733a20000000000000000000000000000000000000000000815250600b0182805190602001908083835b6020831061142c5780518252602082019150602081019050602083039250611409565b6001836020036101000a0380198251168184511680821785525050505050509050019350505050604051602081830303815290604052935080806001019150505b8180600101925050611275565b6000915060009050836040516020018082805190602001908083835b602083106114b95780518252602082019150602081019050602083039250611496565b6001836020036101000a038019825116818451168082178552505050505050905001807f0a0a2a2a2a2a2a2a2a2a2a2a425559204f52444552532a2a2a2a2a2a2a2a2a0a81525060200191505060405160208183030381529060405293505b6005805490508210801561152c5750600581105b1561171d5760016005838154811061154057fe5b906000526020600020906005020160010154141561171057836115806005848154811061156957fe5b9060005260206000209060050201600301546134fc565b6115a76005858154811061159057fe5b9060005260206000209060050201600401546134fc565b6040516020018084805190602001908083835b602083106115dd57805182526020820191506020810190506020830392506115ba565b6001836020036101000a038019825116818451168082178552505050505050905001807f0a78292050726963653a20000000000000000000000000000000000000000000815250600b0183805190602001908083835b602083106116565780518252602082019150602081019050602083039250611633565b6001836020036101000a038019825116818451168082178552505050505050905001807f2d3e205368617265733a20000000000000000000000000000000000000000000815250600b0182805190602001908083835b602083106116cf57805182526020820191506020810190506020830392506116ac565b6001836020036101000a0380198251168184511680821785525050505050509050019350505050604051602081830303815290604052935080806001019150505b8180600101925050611518565b8394505050505090565b606080604051806020016040528060008152509050806117486001546134fc565b6040516020018083805190602001908083835b6020831061177e578051825260208201915060208101905060208303925061175b565b6001836020036101000a038019825116818451168082178552505050505050905001807f0a2a2a2a2a2a2a2a2a2a2a2a2a2a2a2a2a2a0000000000000000000000000000815250601201807f0a00000000000000000000000000000000000000000000000000000000000000815250600101807f4d61726b65742050726963653a20000000000000000000000000000000000000815250600e0182805190602001908083835b602083106118475780518252602082019150602081019050602083039250611824565b6001836020036101000a038019825116818451168082178552505050505050905001807f0a000000000000000000000000000000000000000000000000000000000000008152506001019250505060405160208183030381529060405290508091505090565b600080905060008090505b600480549050811015611b345782600482815481106118d357fe5b9060005260206000209060050201600001541415611b27573373ffffffffffffffffffffffffffffffffffffffff166004828154811061190f57fe5b906000526020600020906005020160020160009054906101000a900473ffffffffffffffffffffffffffffffffffffffff1673ffffffffffffffffffffffffffffffffffffffff16146119ad576040517f08c379a0000000000000000000000000000000000000000000000000000000008152600401808060200182810382526028815260200180613de46028913960400191505060405180910390fd5b6001600482815481106119bc57fe5b90600052602060002090600502016001015414611a24576040517f08c379a000000000000000000000000000000000000000000000000000000000815260040180806020018281038252602b815260200180613d12602b913960400191505060405180910390fd5b600060048281548110611a3357fe5b90600052602060002090600502016001018190555060048181548110611a5557fe5b906000526020600020906005020160040154600360003373ffffffffffffffffffffffffffffffffffffffff1673ffffffffffffffffffffffffffffffffffffffff1681526020019081526020016000206000828254019250508190555060048181548110611ac057fe5b906000526020600020906005020160040154600360003073ffffffffffffffffffffffffffffffffffffffff1673ffffffffffffffffffffffffffffffffffffffff1681526020019081526020016000206000828254039250508190555060019150611b34565b80806001019150506118b8565b5060018114611b8e576040517f08c379a000000000000000000000000000000000000000000000000000000000815260040180806020018281038252603e815260200180613cd4603e913960400191505060405180910390fd5b611b96613932565b5050565b606080604051806020016040528060008152509050600080905060008090505b6005805490508110156120b05760008214156120a3578460058281548110611bde57fe5b90600052602060002090600502016000015414156120a2573373ffffffffffffffffffffffffffffffffffffffff1660058281548110611c1a57fe5b906000526020600020906005020160020160009054906101000a900473ffffffffffffffffffffffffffffffffffffffff1673ffffffffffffffffffffffffffffffffffffffff1614611cb8576040517f08c379a0000000000000000000000000000000000000000000000000000000008152600401808060200182810382526027815260200180613d626027913960400191505060405180910390fd5b82611ce060058381548110611cc957fe5b9060005260206000209060050201600001546134fc565b611d0760058481548110611cf057fe5b9060005260206000209060050201600301546134fc565b611d2e60058581548110611d1757fe5b9060005260206000209060050201600401546134fc565b611d5560058681548110611d3e57fe5b9060005260206000209060050201600101546134fc565b6040516020018086805190602001908083835b60208310611d8b5780518252602082019150602081019050602083039250611d68565b6001836020036101000a038019825116818451168082178552505050505050905001807f0a2a2a2a2a2a2a2a2a2a2a2a2a2a2a2a2a2a0000000000000000000000000000815250601201807f0a00000000000000000000000000000000000000000000000000000000000000815250600101807f4f726465722049443a2000000000000000000000000000000000000000000000815250600a0185805190602001908083835b60208310611e545780518252602082019150602081019050602083039250611e31565b6001836020036101000a038019825116818451168082178552505050505050905001807f0a00000000000000000000000000000000000000000000000000000000000000815250600101807f50726963653a200000000000000000000000000000000000000000000000000081525060070184805190602001908083835b60208310611ef55780518252602082019150602081019050602083039250611ed2565b6001836020036101000a038019825116818451168082178552505050505050905001807f0a00000000000000000000000000000000000000000000000000000000000000815250600101807f5175616e74697479206c6566743a200000000000000000000000000000000000815250600f0183805190602001908083835b60208310611f965780518252602082019150602081019050602083039250611f73565b6001836020036101000a038019825116818451168082178552505050505050905001807f0a00000000000000000000000000000000000000000000000000000000000000815250600101807f53746174653a200000000000000000000000000000000000000000000000000081525060070182805190602001908083835b602083106120375780518252602082019150602081019050602083039250612014565b6001836020036101000a038019825116818451168082178552505050505050905001807f0a00000000000000000000000000000000000000000000000000000000000000815250600101955050505050506040516020818303038152906040529250600191506120b0565b5b8080600101915050611bba565b5060008090505b6004805490508110156125ad5760008214156125a05784600482815481106120db57fe5b906000526020600020906005020160000154141561259f573373ffffffffffffffffffffffffffffffffffffffff166004828154811061211757fe5b906000526020600020906005020160020160009054906101000a900473ffffffffffffffffffffffffffffffffffffffff1673ffffffffffffffffffffffffffffffffffffffff16146121b5576040517f08c379a0000000000000000000000000000000000000000000000000000000008152600401808060200182810382526028815260200180613de46028913960400191505060405180910390fd5b826121dd600483815481106121c657fe5b9060005260206000209060050201600001546134fc565b612204600484815481106121ed57fe5b9060005260206000209060050201600301546134fc565b61222b6004858154811061221457fe5b9060005260206000209060050201600401546134fc565b6122526004868154811061223b57fe5b9060005260206000209060050201600101546134fc565b6040516020018086805190602001908083835b602083106122885780518252602082019150602081019050602083039250612265565b6001836020036101000a038019825116818451168082178552505050505050905001807f0a2a2a2a2a2a2a2a2a2a2a2a2a2a2a2a2a2a0000000000000000000000000000815250601201807f0a00000000000000000000000000000000000000000000000000000000000000815250600101807f4f726465722049443a2000000000000000000000000000000000000000000000815250600a0185805190602001908083835b60208310612351578051825260208201915060208101905060208303925061232e565b6001836020036101000a038019825116818451168082178552505050505050905001807f0a00000000000000000000000000000000000000000000000000000000000000815250600101807f50726963653a200000000000000000000000000000000000000000000000000081525060070184805190602001908083835b602083106123f257805182526020820191506020810190506020830392506123cf565b6001836020036101000a038019825116818451168082178552505050505050905001807f0a00000000000000000000000000000000000000000000000000000000000000815250600101807f5175616e74697479206c6566743a200000000000000000000000000000000000815250600f0183805190602001908083835b602083106124935780518252602082019150602081019050602083039250612470565b6001836020036101000a038019825116818451168082178552505050505050905001807f0a00000000000000000000000000000000000000000000000000000000000000815250600101807f53746174653a200000000000000000000000000000000000000000000000000081525060070182805190602001908083835b602083106125345780518252602082019150602081019050602083039250612511565b6001836020036101000a038019825116818451168082178552505050505050905001807f0a00000000000000000000000000000000000000000000000000000000000000815250600101955050505050506040516020818303038152906040529250600191506125ad565b5b80806001019150506120b7565b5060008114156125d3576040518060800160405280605b8152602001613d89605b913991505b8192505050919050565b8082023414612654576040517f08c379a000000000000000000000000000000000000000000000000000000000815260040180806020018281038252601b8152602001807f57524f4e472c20616d6f756e74206f66206d6f6e65792070616964000000000081525060200191505060405180910390fd5b60008090505b600480549050811015612b4e57826004828154811061267557fe5b906000526020600020906005020160030154111561269257612b4e565b6001600482815481106126a157fe5b906000526020600020906005020160010154146126bd57612b41565b81600482815481106126cb57fe5b9060005260206000209060050201600401541161292257826001819055506000600482815481106126f857fe5b906000526020600020906005020160040154905080600360003073ffffffffffffffffffffffffffffffffffffffff1673ffffffffffffffffffffffffffffffffffffffff1681526020019081526020016000206000828254039250508190555080600360003373ffffffffffffffffffffffffffffffffffffffff1673ffffffffffffffffffffffffffffffffffffffff168152602001908152602001600020600082825401925050819055503073ffffffffffffffffffffffffffffffffffffffff16600483815481106127ca57fe5b906000526020600020906005020160020160009054906101000a900473ffffffffffffffffffffffffffffffffffffffff1673ffffffffffffffffffffffffffffffffffffffff161461289f576004828154811061282457fe5b906000526020600020906005020160020160009054906101000a900473ffffffffffffffffffffffffffffffffffffffff1673ffffffffffffffffffffffffffffffffffffffff166108fc8286029081150290604051600060405180830381858888f1935050505015801561289d573d6000803e3d6000fd5b505b80600483815481106128ad57fe5b9060005260206000209060050201600401600082825403925050819055506000600483815481106128da57fe5b90600052602060002090600502016004015414156129175760026004838154811061290157fe5b9060005260206000209060050201600101819055505b808303925050612b40565b82600181905550600082905080600360003073ffffffffffffffffffffffffffffffffffffffff1673ffffffffffffffffffffffffffffffffffffffff1681526020019081526020016000206000828254039250508190555080600360003373ffffffffffffffffffffffffffffffffffffffff1673ffffffffffffffffffffffffffffffffffffffff168152602001908152602001600020600082825401925050819055503073ffffffffffffffffffffffffffffffffffffffff16600483815481106129ec57fe5b906000526020600020906005020160020160009054906101000a900473ffffffffffffffffffffffffffffffffffffffff1673ffffffffffffffffffffffffffffffffffffffff1614612ac15760048281548110612a4657fe5b906000526020600020906005020160020160009054906101000a900473ffffffffffffffffffffffffffffffffffffffff1673ffffffffffffffffffffffffffffffffffffffff166108fc8286029081150290604051600060405180830381858888f19350505050158015612abf573d6000803e3d6000fd5b505b8060048381548110612acf57fe5b906000526020600020906005020160040160008282540392505081905550600060048381548110612afc57fe5b9060005260206000209060050201600401541415612b3957600260048381548110612b2357fe5b9060005260206000209060050201600101819055505b8083039250505b5b808060010191505061265a565b506000811115612c495760056040518060a001604052806000548152602001600181526020013373ffffffffffffffffffffffffffffffffffffffff1681526020018481526020018381525090806001815401808255809150509060018203906000526020600020906005020160009091929091909150600082015181600001556020820151816001015560408201518160020160006101000a81548173ffffffffffffffffffffffffffffffffffffffff021916908373ffffffffffffffffffffffffffffffffffffffff160217905550606082015181600301556080820151816004015550505060008081548092919060010191905055505b612c51613629565b612c59613932565b5050565b60608060405180602001604052806000815250905080612cbb600360003373ffffffffffffffffffffffffffffffffffffffff1673ffffffffffffffffffffffffffffffffffffffff168152602001908152602001600020546134fc565b6040516020018083805190602001908083835b60208310612cf15780518252602082019150602081019050602083039250612cce565b6001836020036101000a038019825116818451168082178552505050505050905001807f0a2a2a2a2a2a2a2a2a2a2a2a2a2a2a2a2a2a0000000000000000000000000000815250601201807f0a00000000000000000000000000000000000000000000000000000000000000815250600101807f596f7572207368617265733a2000000000000000000000000000000000000000815250600d0182805190602001908083835b60208310612dba5780518252602082019150602081019050602083039250612d97565b6001836020036101000a038019825116818451168082178552505050505050905001807f0a000000000000000000000000000000000000000000000000000000000000008152506001019250505060405160208183030381529060405290508091505090565b80600360003373ffffffffffffffffffffffffffffffffffffffff1673ffffffffffffffffffffffffffffffffffffffff168152602001908152602001600020541015612eb8576040517f08c379a0000000000000000000000000000000000000000000000000000000008152600401808060200182810382526025815260200180613d3d6025913960400191505060405180910390fd5b60008090505b600580549050811015613354578260058281548110612ed957fe5b9060005260206000209060050201600301541015612ef657613354565b600160058281548110612f0557fe5b90600052602060002090600502016001015414612f2157613347565b8160058281548110612f2f57fe5b906000526020600020906005020160040154116131505760058181548110612f5357fe5b906000526020600020906005020160030154600181905550600060058281548110612f7a57fe5b9060005260206000209060050201600401549050806003600060058581548110612fa057fe5b906000526020600020906005020160020160009054906101000a900473ffffffffffffffffffffffffffffffffffffffff1673ffffffffffffffffffffffffffffffffffffffff1673ffffffffffffffffffffffffffffffffffffffff1681526020019081526020016000206000828254019250508190555080600360003373ffffffffffffffffffffffffffffffffffffffff1673ffffffffffffffffffffffffffffffffffffffff168152602001908152602001600020600082825403925050819055503373ffffffffffffffffffffffffffffffffffffffff166108fc826005858154811061308e57fe5b906000526020600020906005020160030154029081150290604051600060405180830381858888f193505050501580156130cc573d6000803e3d6000fd5b5080600583815481106130db57fe5b90600052602060002090600502016004016000828254039250508190555060006005838154811061310857fe5b90600052602060002090600502016004015414156131455760026005838154811061312f57fe5b9060005260206000209060050201600101819055505b808303925050613338565b6005818154811061315d57fe5b906000526020600020906005020160030154600181905550600082905080600360006005858154811061318c57fe5b906000526020600020906005020160020160009054906101000a900473ffffffffffffffffffffffffffffffffffffffff1673ffffffffffffffffffffffffffffffffffffffff1673ffffffffffffffffffffffffffffffffffffffff1681526020019081526020016000206000828254019250508190555080600360003373ffffffffffffffffffffffffffffffffffffffff1673ffffffffffffffffffffffffffffffffffffffff168152602001908152602001600020600082825403925050819055503373ffffffffffffffffffffffffffffffffffffffff166108fc826005858154811061327a57fe5b906000526020600020906005020160030154029081150290604051600060405180830381858888f193505050501580156132b8573d6000803e3d6000fd5b5080600583815481106132c757fe5b9060005260206000209060050201600401600082825403925050819055506000600583815481106132f457fe5b90600052602060002090600502016004015414156133315760026005838154811061331b57fe5b9060005260206000209060050201600101819055505b8083039250505b600082141561334657613354565b5b8080600101915050612ebe565b50600081146134e85760046040518060a001604052806000548152602001600181526020013373ffffffffffffffffffffffffffffffffffffffff1681526020018481526020018381525090806001815401808255809150509060018203906000526020600020906005020160009091929091909150600082015181600001556020820151816001015560408201518160020160006101000a81548173ffffffffffffffffffffffffffffffffffffffff021916908373ffffffffffffffffffffffffffffffffffffffff160217905550606082015181600301556080820151816004015550505080600360003373ffffffffffffffffffffffffffffffffffffffff1673ffffffffffffffffffffffffffffffffffffffff1681526020019081526020016000206000828254039250508190555080600360003073ffffffffffffffffffffffffffffffffffffffff1673ffffffffffffffffffffffffffffffffffffffff1681526020019081526020016000206000828254019250508190555060008081548092919060010191905055505b6134f0613629565b6134f8613932565b5050565b60606000821415613544576040518060400160405280600181526020017f30000000000000000000000000000000000000000000000000000000000000008152509050613624565b600082905060005b6000821461356e578080600101915050600a828161356657fe5b04915061354c565b6060816040519080825280601f01601f1916602001820160405280156135a35781602001600182028038833980820191505090505b50905060008290508593505b6000841461361c57600a84816135c157fe5b0660300160f81b828260019003925082815181106135db57fe5b60200101907effffffffffffffffffffffffffffffffffffffffffffffffffffffffffffff1916908160001a905350600a848161361457fe5b0493506135af565b819450505050505b919050565b60006006816136389190613c3b565b5060008090505b600580549050811015613814576000809050600080905060008090505b6005805490508110156136fc5760016005828154811061367857fe5b90600052602060002090600502016001015414156136ef5760008314156136a557600192508091506136ee565b600581815481106136b257fe5b906000526020600020906005020160030154600583815481106136d157fe5b90600052602060002090600502016003015410156136ed578091505b5b5b808060010191505061365c565b5060018214156138055760066005828154811061371557fe5b90600052602060002090600502019080600181540180825580915050906001820390600052602060002090600502016000909192909190915060008201548160000155600182015481600101556002820160009054906101000a900473ffffffffffffffffffffffffffffffffffffffff168160020160006101000a81548173ffffffffffffffffffffffffffffffffffffffff021916908373ffffffffffffffffffffffffffffffffffffffff16021790555060038201548160030155600482015481600401555050506000600582815481106137ef57fe5b9060005260206000209060050201600101819055505b5050808060010191505061363f565b5060006005816138249190613c3b565b5060008090505b60068054905081101561391f5760056006828154811061384757fe5b90600052602060002090600502019080600181540180825580915050906001820390600052602060002090600502016000909192909190915060008201548160000155600182015481600101556002820160009054906101000a900473ffffffffffffffffffffffffffffffffffffffff168160020160006101000a81548173ffffffffffffffffffffffffffffffffffffffff021916908373ffffffffffffffffffffffffffffffffffffffff1602179055506003820154816003015560048201548160040155505050808060010191505061382b565b50600060068161392f9190613c3b565b50565b60006006816139419190613c3b565b5060008090505b600480549050811015613b1d576000809050600080905060008090505b600480549050811015613a055760016004828154811061398157fe5b90600052602060002090600502016001015414156139f85760008314156139ae57600192508091506139f7565b600481815481106139bb57fe5b906000526020600020906005020160030154600483815481106139da57fe5b90600052602060002090600502016003015411156139f6578091505b5b5b8080600101915050613965565b506001821415613b0e57600660048281548110613a1e57fe5b90600052602060002090600502019080600181540180825580915050906001820390600052602060002090600502016000909192909190915060008201548160000155600182015481600101556002820160009054906101000a900473ffffffffffffffffffffffffffffffffffffffff168160020160006101000a81548173ffffffffffffffffffffffffffffffffffffffff021916908373ffffffffffffffffffffffffffffffffffffffff1602179055506003820154816003015560048201548160040155505050600060048281548110613af857fe5b9060005260206000209060050201600101819055505b50508080600101915050613948565b506000600481613b2d9190613c3b565b5060008090505b600680549050811015613c2857600460068281548110613b5057fe5b90600052602060002090600502019080600181540180825580915050906001820390600052602060002090600502016000909192909190915060008201548160000155600182015481600101556002820160009054906101000a900473ffffffffffffffffffffffffffffffffffffffff168160020160006101000a81548173ffffffffffffffffffffffffffffffffffffffff021916908373ffffffffffffffffffffffffffffffffffffffff16021790555060038201548160030155600482015481600401555050508080600101915050613b34565b506000600681613c389190613c3b565b50565b815481835581811115613c6857600502816005028360005260206000209182019101613c679190613c6d565b5b505050565b613cd091905b80821115613ccc5760008082016000905560018201600090556002820160006101000a81549073ffffffffffffffffffffffffffffffffffffffff02191690556003820160009055600482016000905550600501613c73565b5090565b9056fe54686973204f7264657220494420796f7520686176652070726f766964656420646f6573206e6f742065786973742c20706c65617365207265636865636b546865204f7264657220697320616c72656164792063616e63656c6c6564206f722066756c66696c6c6564596f7520646f206e6f74206861766520656e6f7567682073686172657320746f2073656c6c596f7520617265206e6f7420746865206f776e6572206f66207468697320427579206f7264657254686973204f7264657220494420796f7520686176652070726f766964656420646f6573206e6f742065786973742c206f7220746865206f726465722069732063616e63656c6c6564206f722066756c6c79206578656375746564596f7520617265206e6f7420746865206f776e6572206f6620746869732053656c6c206f72646572a265627a7a723158206528f42cb83d7edbcc40a804d3ddb231882b8fc7610f1a9e13850a56711dc4d164736f6c63430005100032",
  "source": "// SPDX-License-Identifier: MIT\npragma solidity 0.5.16;\n\n// import \"truffle/Console.sol\";\n\ncontract Nifty {\n    struct NewOrder{\n        uint order_id; // represents the order ID\n        uint State; //represents id order is open for execution 1, cancelled 0 or completed 2\n        address payable ExecutorAddress;//represents the address of the individual who posted the order\n        uint Price; //price individual is willing to give or take for the order\n        uint qty_left; //quantity of stocks left to be sold or bought\n    }\n\n    uint number_of_orders; \n    uint marketprice;\n    // number of orders placed \n\n    string private Symbol; \n    // string, denoting the name of the asset exchanged by the smart contract\n    \n    mapping (address=> uint) private OwnedStocks; \n    // A mapping to store the owner address and the quantity of the assets owned\n    \n    \n    NewOrder[] private Sell_orders; \n    // NewOrder array, A sorted array of type NewOrder Structure of all the \n    // selling orders which are yet to be executed\n    \n    NewOrder[] private Buy_orders; \n    // NewOrder array, A sorted array of type NewOrder Structure of all the \n    // buying orders which are yet to be executed.\n\n\n    NewOrder[] private temp_orders; \n    // NewOrder array, A temporary array of type NewOrder Structure \n\n\n    // constructor which provides options for IPO\n    constructor(string memory symbol_sent, uint quantity_sent,uint price_sent) public\n    {\n        Symbol = symbol_sent;\n        OwnedStocks[address(this)] = quantity_sent;\n        Sell_orders.push(NewOrder(number_of_orders,1,address(uint160(address(this))),price_sent,quantity_sent));\n        number_of_orders++;\n        marketprice = price_sent;\n    }\n\n\n    // function to sort Buy_orders\n    function sort_Buy_orders() internal \n    {\n        // NewOrder[] storage temp_orders;\n        temp_orders.length = 0;\n        for(uint i=0; i<Buy_orders.length; i++)\n        {\n            uint found = 0;\n            uint found_id = 0;\n            for(uint j=0; j<Buy_orders.length; j++)\n            {\n                if(Buy_orders[j].State == 1)\n                {\n                    if(found==0)\n                    {\n                        found = 1;\n                        found_id = j;\n                    }\n                    else\n                    {\n                        if(Buy_orders[found_id].Price < Buy_orders[j].Price)\n                        {\n                            found_id = j;\n                        }\n                    }\n                }\n            }\n            if(found == 1)\n            {\n                temp_orders.push(Buy_orders[found_id]);\n                Buy_orders[found_id].State = 0;\n            }\n        }\n\n        Buy_orders.length = 0;\n\n        for(uint i = 0 ; i<temp_orders.length ; i++)\n        {\n            Buy_orders.push(temp_orders[i]);\n        }\n        temp_orders.length = 0;\n    }\n\n    // function to sort Sell_orders\n    function sort_Sell_orders() internal \n    {\n        // NewOrder[] storage temp_orders;\n        temp_orders.length = 0;\n        for(uint i=0; i<Sell_orders.length; i++)\n        {\n            uint found = 0;\n            uint found_id = 0;\n            for(uint j=0; j<Sell_orders.length; j++)\n            {\n                if(Sell_orders[j].State == 1)\n                {\n                    if(found==0)\n                    {\n                        found = 1;\n                        found_id = j;\n                    }\n                    else\n                    {\n                        if(Sell_orders[found_id].Price > Sell_orders[j].Price)\n                        {\n                            found_id = j;\n                        }\n                    }\n                }\n            }\n            if(found == 1)\n            {\n                temp_orders.push(Sell_orders[found_id]);\n                Sell_orders[found_id].State = 0;\n            }\n        }\n\n        Sell_orders.length = 0;\n\n        for(uint i = 0 ; i<temp_orders.length ; i++)\n        {\n            Sell_orders.push(temp_orders[i]);\n        }\n        temp_orders.length = 0;\n    }   \n\n\n    // A function to post a buy order for underlying security, function will take all the \n    // necesarry inputs to post a buy order as parameter and will return the status of order.\n    function buy(uint sent_price, uint sent_qty) payable public\n    {\n        // string memory ret = \"TEST\";\n        require(msg.value == sent_price*sent_qty,\"WRONG, amount of money paid\"); // check if the value of money sent matches with quantity*price\n        for(uint i=0;i<Sell_orders.length;i++)\n        {\n            if(Sell_orders[i].Price > sent_price)\n            {\n                break;\n            }\n            if(Sell_orders[i].State != 1){\n                continue;\n            }\n            else\n            {\n                if(Sell_orders[i].qty_left <= sent_qty)\n                {\n                    marketprice = sent_price;\n                    uint temp_qty = Sell_orders[i].qty_left;\n                    OwnedStocks[address(this)] -= temp_qty;\n                    OwnedStocks[msg.sender] += temp_qty;\n                    \n                    if(Sell_orders[i].ExecutorAddress != address(uint160(address(this))) )\n                    {\n                    Sell_orders[i].ExecutorAddress.transfer(sent_price*temp_qty);\n                    }\n\n                    Sell_orders[i].qty_left -= temp_qty;\n                    if(Sell_orders[i].qty_left == 0)\n                    {\n                        Sell_orders[i].State = 2;\n                    }\n                    sent_qty -= temp_qty;\n                }\n                else\n                {\n                    marketprice = sent_price;\n                    uint temp_qty = sent_qty;\n                    OwnedStocks[address(this)] -= temp_qty;\n                    OwnedStocks[msg.sender] += temp_qty;\n                    if(Sell_orders[i].ExecutorAddress != address(uint160(address(this))) )\n                    {\n                        Sell_orders[i].ExecutorAddress.transfer(sent_price*temp_qty);\n                    }\n                    Sell_orders[i].qty_left -= temp_qty;\n                    if(Sell_orders[i].qty_left == 0)\n                    {\n                        Sell_orders[i].State = 2;\n                    }\n                    sent_qty -= temp_qty;\n                }\n            }\n        }\n\n        if(sent_qty > 0)\n        {\n            Buy_orders.push(NewOrder(number_of_orders,1,msg.sender,sent_price,sent_qty));\n            number_of_orders++;\n        }\n        sort_Buy_orders();\n        sort_Sell_orders();\n    }\n\n\n    function sell(uint sell_price, uint sell_qty) payable public\n    {\n        require(OwnedStocks[msg.sender] >= sell_qty, \"You do not have enough shares to sell\");\n        \n        for(uint i=0;i<Buy_orders.length;i++)\n        {\n            if(Buy_orders[i].Price < sell_price)\n            {\n                break;\n            }\n            if(Buy_orders[i].State != 1){\n                continue;\n            }\n            else\n            {\n                if(Buy_orders[i].qty_left <= sell_qty)\n                {\n                    marketprice = Buy_orders[i].Price;\n                    uint temp_qty = Buy_orders[i].qty_left;\n                    OwnedStocks[Buy_orders[i].ExecutorAddress] += temp_qty;\n                    OwnedStocks[msg.sender] -= temp_qty;\n                    address(uint160(msg.sender)).transfer(Buy_orders[i].Price*temp_qty);\n                    Buy_orders[i].qty_left -= temp_qty;\n                    if(Buy_orders[i].qty_left == 0)\n                    {\n                        Buy_orders[i].State = 2;\n                    }\n                    sell_qty -= temp_qty;\n                }\n                else\n                {\n                    marketprice = Buy_orders[i].Price;\n                    uint temp_qty = sell_qty;\n                    OwnedStocks[Buy_orders[i].ExecutorAddress] += temp_qty;\n                    OwnedStocks[msg.sender] -= temp_qty;\n                    address(uint160(msg.sender)).transfer(Buy_orders[i].Price*temp_qty);\n                    Buy_orders[i].qty_left -= temp_qty;\n                    if(Buy_orders[i].qty_left == 0)\n                    {\n                        Buy_orders[i].State = 2;\n                    }\n                    sell_qty -= temp_qty;\n                }\n                if(sell_qty == 0){\n                    break;\n                }\n            }\n        }\n\n        if(sell_qty !=0)\n        {\n            Sell_orders.push(NewOrder(number_of_orders,1,msg.sender,sell_price,sell_qty));\n            OwnedStocks[msg.sender] -= sell_qty;\n            OwnedStocks[address(this)] += sell_qty;\n            number_of_orders++;\n        }\n        sort_Buy_orders();\n        sort_Sell_orders();\n    }\n\n    function getDetails(uint orderid) public view returns(string memory)\n    {\n\n        string memory ret = \"\";\n\n        uint found = 0;\n\n        for(uint i=0;i<Buy_orders.length;i++)\n        {\n            if(found == 0)\n            {\n            if(Buy_orders[i].order_id == orderid)\n            {\n                require(Buy_orders[i].ExecutorAddress == msg.sender, \"You are not the owner of this Buy order\");\n                ret = string(abi.encodePacked(ret,\"\\n*****************\",\"\\n\",\"Order ID: \",uint2str(Buy_orders[i].order_id),\"\\n\",\n                \"Price: \",uint2str(Buy_orders[i].Price),\"\\n\",\n                \"Quantity left: \", uint2str(Buy_orders[i].qty_left),\"\\n\",\n                \"State: \",uint2str(Buy_orders[i].State),\"\\n\"));\n                \n                found = 1;\n                break;\n            }\n            }\n        }\n\n        for(uint i=0;i<Sell_orders.length;i++)\n        {\n            if(found == 0)\n            {\n            if(Sell_orders[i].order_id == orderid)\n            {\n                require(Sell_orders[i].ExecutorAddress == address(uint160(msg.sender)), \"You are not the owner of this Sell order\");\n                \n                ret = string(abi.encodePacked(ret,\"\\n*****************\",\"\\n\",\"Order ID: \",uint2str(Sell_orders[i].order_id),\"\\n\",\n                \"Price: \",uint2str(Sell_orders[i].Price),\"\\n\",\n                \"Quantity left: \", uint2str(Sell_orders[i].qty_left),\"\\n\",\n                \"State: \",uint2str(Sell_orders[i].State),\"\\n\"));\n                \n                found = 1;\n                break;\n\n            }\n            }\n        }\n\n        if(found == 0)\n        {\n            ret = string(\"This Order ID you have provided does not exist, or the order is cancelled or fully executed\");\n        }\n        return ret;\n    }\n\n    function getMarketPrice() public view returns(string memory)\n    {\n        string memory ret = \"\";\n        ret = string(abi.encodePacked(ret,\"\\n*****************\",\"\\n\",\"Market Price: \",uint2str(marketprice),\"\\n\"));\n        return ret;\n    }\n\n    function getMarketDepth() public view returns(string memory)\n    {\n        string memory ret = \"\";\n        uint length = 0;\n        ret = string(abi.encodePacked(ret, \"\\n**********SELL ORDERS*********\\n\"));\n        uint i=0;\n        uint itr = 0;\n        while(i < Sell_orders.length && itr < 5){\n            if(Sell_orders[i].State == 1)\n            {\n                ret = string(abi.encodePacked(ret, \"\\nx) Price: \", uint2str(Sell_orders[i].Price), \"-> Shares: \", uint2str(Sell_orders[i].qty_left)));\n                itr++;\n            }\n            i++;\n        }\n        i = 0;\n        itr = 0;\n        ret = string(abi.encodePacked(ret, \"\\n\\n**********BUY ORDERS*********\\n\"));\n        while(i < Buy_orders.length && itr < 5){\n            if(Buy_orders[i].State == 1)\n            {\n                ret = string(abi.encodePacked(ret, \"\\nx) Price: \", uint2str(Buy_orders[i].Price), \"-> Shares: \", uint2str(Buy_orders[i].qty_left)));\n                itr++;\n            }\n            i++;\n        }\n        return ret;\n    }\n    function getActiveOrders() public view returns(string memory){\n        string memory ret = \"\";\n        uint length = 0;\n        ret = string(abi.encodePacked(ret, \"\\n**********SELL ORDERS*********\\n\"));\n        for(uint i=0;i<Sell_orders.length;i++)\n        {\n            if(Sell_orders[i].State == 1 && Sell_orders[i].ExecutorAddress == address(uint160(msg.sender)))\n            {\n                ret = string(abi.encodePacked(ret,\"\\n*****************\",\"\\n\",\"Order ID: \",uint2str(Sell_orders[i].order_id),\"\\n\",\n                \"Price: \",uint2str(Sell_orders[i].Price),\"\\n\",\n                \"Quantity left: \", uint2str(Sell_orders[i].qty_left),\"\\n\",\n                \"State: \",uint2str(Sell_orders[i].State),\"\\n\"));\n            }\n        }\n        ret = string(abi.encodePacked(ret, \"\\n\\n**********BUY ORDERS*********\\n\"));\n        for(uint i=0;i<Buy_orders.length;i++)\n        {\n            if(Buy_orders[i].State == 1 && Buy_orders[i].ExecutorAddress == address(uint160(msg.sender)))\n            {\n                ret = string(abi.encodePacked(ret,\"\\n*****************\",\"\\n\",\"Order ID: \",uint2str(Buy_orders[i].order_id),\"\\n\",\n                \"Price: \",uint2str(Buy_orders[i].Price),\"\\n\",\n                \"Quantity left: \", uint2str(Buy_orders[i].qty_left),\"\\n\",\n                \"State: \",uint2str(Buy_orders[i].State),\"\\n\"));\n            }\n        }\n        return ret;\n    }\n    function cancel_buyorder(uint orderid) public payable\n    {\n        uint found = 0;\n        for(uint i=0;i<Buy_orders.length;i++)\n        {\n            if(Buy_orders[i].order_id == orderid)\n            {\n                require(Buy_orders[i].ExecutorAddress == address(uint160(msg.sender)), \"You are not the owner of this Buy order\");\n                require(Buy_orders[i].State == 1, \"The Order is already cancelled or fulfilled\");\n                Buy_orders[i].ExecutorAddress.transfer(Buy_orders[i].Price*Buy_orders[i].qty_left);\n                Buy_orders[i].State = 0;\n                found = 1;\n                break;\n\n            }\n        }\n        require(found == 1,\"This Order ID you have provided does not exist, please recheck\");\n        sort_Buy_orders();\n    }\n\n    function cancel_sellorder(uint orderid) public \n    {\n        uint found = 0;\n        for(uint i=0;i<Sell_orders.length;i++)\n        {\n            if(Sell_orders[i].order_id == orderid)\n            {\n                require(Sell_orders[i].ExecutorAddress == msg.sender, \"You are not the owner of this Sell order\");\n                require(Sell_orders[i].State == 1, \"The Order is already cancelled or fulfilled\");\n                Sell_orders[i].State = 0;\n                OwnedStocks[msg.sender] += Sell_orders[i].qty_left;\n                OwnedStocks[address(this)] -= Sell_orders[i].qty_left;\n                found = 1;\n                break;\n\n            }\n        }\n        require(found == 1,\"This Order ID you have provided does not exist, please recheck\");\n        sort_Sell_orders();\n    }\n    function getShares() view public returns(string memory) \n    {\n        string memory ret = \"\";\n        ret = string(abi.encodePacked(ret,\"\\n*****************\",\"\\n\",\"Your shares: \",uint2str(OwnedStocks[msg.sender]),\"\\n\"));\n        return ret;\n    }\n\n    function uint2str(uint256 _i) internal pure returns (string memory str)\n    {\n        if (_i == 0)\n        {\n            return \"0\";\n        }\n        uint256 j = _i;\n        uint256 length;\n        while (j != 0)\n        {\n            length++;\n            j /= 10;\n        }\n        bytes memory bstr = new bytes(length);\n        uint256 k = length;\n        j = _i;\n        while (j != 0)\n        {\n            bstr[--k] = bytes1(uint8(48 + j % 10));\n            j /= 10;\n        }\n        str = string(bstr);\n    }\n}",
  "sourcePath": "/home/akshit/Documents/SEM7/Blockchain/Assignment-3/DSE-Decentralised-Stock-Exchange/contracts/Nifty.sol",
  "compiler": {
    "name": "solc",
    "version": "0.5.16+commit.9c3226ce.Emscripten.clang"
  },
  "schemaVersion": "3.4.3",
  "updatedAt": "2021-12-09T12:20:53.328Z",
  "networkType": "ethereum",
  "devdoc": {
    "methods": {}
  },
  "userdoc": {
    "methods": {}
  }
}